{
  "abi": [
    {
      "inputs": [
        {
          "internalType": "address",
          "name": "initialOwner",
          "type": "address"
        },
        {
          "internalType": "address",
          "name": "_oldContract",
          "type": "address"
        },
        {
          "internalType": "string",
          "name": "nameOfToken",
          "type": "string"
        },
        {
          "internalType": "string",
          "name": "symbolOfToken",
          "type": "string"
        },
        {
          "internalType": "string",
          "name": "_baseURI",
          "type": "string"
        },
        {
          "internalType": "uint256",
          "name": "_costPerMint",
          "type": "uint256"
        }
      ],
      "name": "deployContract",
      "outputs": [
        {
          "internalType": "address",
          "name": "",
          "type": "address"
        }
      ],
      "stateMutability": "nonpayable",
      "type": "function"
    }
  ],
  "bytecode": {
    "object": "0x608060405234801561001057600080fd5b5061250d806100206000396000f3fe608060405234801561001057600080fd5b506004361061002b5760003560e01c806323ad28fc14610030575b600080fd5b61004361003e366004610178565b61005f565b6040516001600160a01b03909116815260200160405180910390f35b600080878787878787604051610074906100ac565b61008396959493929190610270565b604051809103906000f08015801561009f573d6000803e3d6000fd5b5098975050505050505050565b612201806102d783390190565b80356001600160a01b03811681146100d057600080fd5b919050565b634e487b7160e01b600052604160045260246000fd5b600082601f8301126100fc57600080fd5b813567ffffffffffffffff80821115610117576101176100d5565b604051601f8301601f19908116603f0116810190828211818310171561013f5761013f6100d5565b8160405283815286602085880101111561015857600080fd5b836020870160208301376000602085830101528094505050505092915050565b60008060008060008060c0878903121561019157600080fd5b61019a876100b9565b95506101a8602088016100b9565b9450604087013567ffffffffffffffff808211156101c557600080fd5b6101d18a838b016100eb565b955060608901359150808211156101e757600080fd5b6101f38a838b016100eb565b9450608089013591508082111561020957600080fd5b5061021689828a016100eb565b92505060a087013590509295509295509295565b6000815180845260005b8181101561025057602081850181015186830182015201610234565b506000602082860101526020601f19601f83011685010191505092915050565b6001600160a01b0387811682528616602082015260c06040820181905260009061029c9083018761022a565b82810360608401526102ae818761022a565b905082810360808401526102c2818661022a565b9150508260a083015297965050505050505056fe60806040523480156200001157600080fd5b5060405162002201380380620022018339810160408190526200003491620001ff565b85848460006200004583826200034e565b5060016200005482826200034e565b5050506001600160a01b0381166200008657604051631e4fbdf760e01b81526000600482015260240160405180910390fd5b6200009181620000cb565b50600c80546001600160a01b0319166001600160a01b038716179055600d620000bb83826200034e565b50600e55506200041a9350505050565b600b80546001600160a01b038381166001600160a01b0319831681179093556040519116919082907f8be0079c531659141344cd1fd0a4f28419497f9722a3daafe3b4186f6b6457e090600090a35050565b80516001600160a01b03811681146200013557600080fd5b919050565b634e487b7160e01b600052604160045260246000fd5b600082601f8301126200016257600080fd5b81516001600160401b03808211156200017f576200017f6200013a565b604051601f8301601f19908116603f01168101908282118183101715620001aa57620001aa6200013a565b81604052838152602092508683858801011115620001c757600080fd5b600091505b83821015620001eb5785820183015181830184015290820190620001cc565b600093810190920192909252949350505050565b60008060008060008060c087890312156200021957600080fd5b62000224876200011d565b955062000234602088016200011d565b60408801519095506001600160401b03808211156200025257600080fd5b620002608a838b0162000150565b955060608901519150808211156200027757600080fd5b620002858a838b0162000150565b945060808901519150808211156200029c57600080fd5b50620002ab89828a0162000150565b92505060a087015190509295509295509295565b600181811c90821680620002d457607f821691505b602082108103620002f557634e487b7160e01b600052602260045260246000fd5b50919050565b601f8211156200034957600081815260208120601f850160051c81016020861015620003245750805b601f850160051c820191505b81811015620003455782815560010162000330565b5050505b505050565b81516001600160401b038111156200036a576200036a6200013a565b62000382816200037b8454620002bf565b84620002fb565b602080601f831160018114620003ba5760008415620003a15750858301515b600019600386901b1c1916600185901b17855562000345565b600085815260208120601f198616915b82811015620003eb57888601518255948401946001909101908401620003ca565b50858210156200040a5787850151600019600388901b60f8161c191681555b5050505050600190811b01905550565b611dd7806200042a6000396000f3fe60806040526004361061019c5760003560e01c80636352211e116100ec578063a22cb4651161008a578063c87b56dd11610064578063c87b56dd14610477578063e39ff19f14610497578063e985e9c5146104b7578063f2fde38b146104d757600080fd5b8063a22cb46514610421578063b88d4fde14610441578063b95d366b1461046157600080fd5b8063715018a6116100c6578063715018a6146103b95780638da5cb5b146103ce578063957cbd2e146103ec57806395d89b411461040c57600080fd5b80636352211e146103645780636c0360eb1461038457806370a082311461039957600080fd5b80632f745c591161015957806342842e0e1161013357806342842e0e146102e457806342966c68146103045780634f6ccce7146103245780635cb85cd21461034457600080fd5b80632f745c591461029157806331c864e8146102b157806339a0c6f9146102c457600080fd5b806301ffc9a7146101a157806306fdde03146101d6578063081812fc146101f8578063095ea7b31461023057806318160ddd1461025257806323b872dd14610271575b600080fd5b3480156101ad57600080fd5b506101c16101bc36600461186d565b6104f7565b60405190151581526020015b60405180910390f35b3480156101e257600080fd5b506101eb610508565b6040516101cd91906118da565b34801561020457600080fd5b506102186102133660046118ed565b61059a565b6040516001600160a01b0390911681526020016101cd565b34801561023c57600080fd5b5061025061024b36600461191b565b6105c3565b005b34801561025e57600080fd5b506008545b6040519081526020016101cd565b34801561027d57600080fd5b5061025061028c366004611947565b6105d2565b34801561029d57600080fd5b506102636102ac36600461191b565b610662565b6102506102bf3660046118ed565b6106c7565b3480156102d057600080fd5b506102506102df366004611a14565b6108c1565b3480156102f057600080fd5b506102506102ff366004611947565b6108d5565b34801561031057600080fd5b5061025061031f3660046118ed565b6108f5565b34801561033057600080fd5b5061026361033f3660046118ed565b610901565b34801561035057600080fd5b5061025061035f3660046118ed565b61095a565b34801561037057600080fd5b5061021861037f3660046118ed565b610967565b34801561039057600080fd5b506101eb610972565b3480156103a557600080fd5b506102636103b4366004611a5d565b610a00565b3480156103c557600080fd5b50610250610a48565b3480156103da57600080fd5b50600b546001600160a01b0316610218565b3480156103f857600080fd5b506102506104073660046118ed565b610a5c565b34801561041857600080fd5b506101eb610b0c565b34801561042d57600080fd5b5061025061043c366004611a7a565b610b1b565b34801561044d57600080fd5b5061025061045c366004611ab8565b610b26565b34801561046d57600080fd5b50610263600e5481565b34801561048357600080fd5b506101eb6104923660046118ed565b610b3d565b3480156104a357600080fd5b506102506104b2366004611a5d565b610b48565b3480156104c357600080fd5b506101c16104d2366004611b38565b610b85565b3480156104e357600080fd5b506102506104f2366004611a5d565b610bb3565b600061050282610bee565b92915050565b60606000805461051790611b66565b80601f016020809104026020016040519081016040528092919081815260200182805461054390611b66565b80156105905780601f1061056557610100808354040283529160200191610590565b820191906000526020600020905b81548152906001019060200180831161057357829003601f168201915b5050505050905090565b60006105a582610c13565b506000828152600460205260409020546001600160a01b0316610502565b6105ce828233610c4c565b5050565b6001600160a01b03821661060157604051633250574960e11b8152600060048201526024015b60405180910390fd5b600061060e838333610c59565b9050836001600160a01b0316816001600160a01b03161461065c576040516364283d7b60e01b81526001600160a01b03808616600483015260248201849052821660448201526064016105f8565b50505050565b600061066d83610a00565b821061069e5760405163295f44f760e21b81526001600160a01b0384166004820152602481018390526044016105f8565b506001600160a01b03919091166000908152600660209081526040808320938352929052205490565b600e5434146106e95760405163de5004e160e01b815260040160405180910390fd5b600c546040516331a9108f60e11b8152600481018390526001600160a01b0390911690636352211e90602401602060405180830381865afa158015610732573d6000803e3d6000fd5b505050506040513d601f19601f820116820180604052508101906107569190611ba0565b6001600160a01b0316336001600160a01b0316146107875760405163685d3b5f60e11b815260040160405180910390fd5b60405130903480156108fc02916000818181858888f193505050501580156107b3573d6000803e3d6000fd5b50600c546040516323b872dd60e01b8152336004820152306024820152604481018390526001600160a01b03909116906323b872dd90606401600060405180830381600087803b15801561080657600080fd5b505af115801561081a573d6000803e3d6000fd5b50505050600033905061082d8183610c6e565b6105ce82600d805461083e90611b66565b80601f016020809104026020016040519081016040528092919081815260200182805461086a90611b66565b80156108b75780601f1061088c576101008083540402835291602001916108b7565b820191906000526020600020905b81548152906001019060200180831161089a57829003601f168201915b5050505050610c88565b6108c9610cd8565b600d6105ce8282611c0b565b6108f083838360405180602001604052806000815250610b26565b505050565b6105ce60008233610c59565b600061090c60085490565b82106109355760405163295f44f760e21b815260006004820152602481018390526044016105f8565b6008828154811061094857610948611ccb565b90600052602060002001549050919050565b610962610cd8565b600e55565b600061050282610c13565b600d805461097f90611b66565b80601f01602080910402602001604051908101604052809291908181526020018280546109ab90611b66565b80156109f85780601f106109cd576101008083540402835291602001916109f8565b820191906000526020600020905b8154815290600101906020018083116109db57829003601f168201915b505050505081565b60006001600160a01b038216610a2c576040516322718ad960e21b8152600060048201526024016105f8565b506001600160a01b031660009081526003602052604090205490565b610a50610cd8565b610a5a6000610d05565b565b610a6581610967565b6001600160a01b0316336001600160a01b031614610a965760405163685d3b5f60e11b815260040160405180910390fd5b600c54604051632142170760e11b8152306004820152336024820152604481018390526001600160a01b03909116906342842e0e90606401600060405180830381600087803b158015610ae857600080fd5b505af1158015610afc573d6000803e3d6000fd5b50505050610b0981610d57565b50565b60606001805461051790611b66565b6105ce338383610d92565b610b318484846105d2565b61065c84848484610e31565b606061050282610f5a565b610b50610cd8565b6040516001600160a01b038216904780156108fc02916000818181858888f193505050501580156105ce573d6000803e3d6000fd5b6001600160a01b03918216600090815260056020908152604080832093909416825291909152205460ff1690565b610bbb610cd8565b6001600160a01b038116610be557604051631e4fbdf760e01b8152600060048201526024016105f8565b610b0981610d05565b60006001600160e01b03198216632483248360e11b1480610502575061050282611063565b6000818152600260205260408120546001600160a01b03168061050257604051637e27328960e01b8152600481018490526024016105f8565b6108f08383836001611088565b6000610c6684848461118e565b949350505050565b6105ce82826040518060200160405280600081525061125b565b6000828152600a60205260409020610ca08282611c0b565b506040518281527ff8e1a15aba9398e019f0b49df1a4fde98ee17ae345cb5f6b5e2c27f5033e8ce79060200160405180910390a15050565b600b546001600160a01b03163314610a5a5760405163118cdaa760e01b81523360048201526024016105f8565b600b80546001600160a01b038381166001600160a01b0319831681179093556040519116919082907f8be0079c531659141344cd1fd0a4f28419497f9722a3daafe3b4186f6b6457e090600090a35050565b6000610d666000836000610c59565b90506001600160a01b0381166105ce57604051637e27328960e01b8152600481018390526024016105f8565b6001600160a01b038216610dc457604051630b61174360e31b81526001600160a01b03831660048201526024016105f8565b6001600160a01b03838116600081815260056020908152604080832094871680845294825291829020805460ff191686151590811790915591519182527f17307eab39ab6107e8899845ad3d59bd9653f200f220920489ca2b5937696c31910160405180910390a3505050565b6001600160a01b0383163b1561065c57604051630a85bd0160e11b81526001600160a01b0384169063150b7a0290610e73903390889087908790600401611ce1565b6020604051808303816000875af1925050508015610eae575060408051601f3d908101601f19168201909252610eab91810190611d1e565b60015b610f17573d808015610edc576040519150601f19603f3d011682016040523d82523d6000602084013e610ee1565b606091505b508051600003610f0f57604051633250574960e11b81526001600160a01b03851660048201526024016105f8565b805181602001fd5b6001600160e01b03198116630a85bd0160e11b14610f5357604051633250574960e11b81526001600160a01b03851660048201526024016105f8565b5050505050565b6060610f6582610c13565b506000828152600a602052604081208054610f7f90611b66565b80601f0160208091040260200160405190810160405280929190818152602001828054610fab90611b66565b8015610ff85780601f10610fcd57610100808354040283529160200191610ff8565b820191906000526020600020905b815481529060010190602001808311610fdb57829003601f168201915b50505050509050600061101660408051602081019091526000815290565b90508051600003611028575092915050565b81511561105a578082604051602001611042929190611d3b565b60405160208183030381529060405292505050919050565b610c6684611272565b60006001600160e01b0319821663780e9d6360e01b14806105025750610502826112e7565b808061109c57506001600160a01b03821615155b1561115e5760006110ac84610c13565b90506001600160a01b038316158015906110d85750826001600160a01b0316816001600160a01b031614155b80156110eb57506110e98184610b85565b155b156111145760405163a9fbf51f60e01b81526001600160a01b03841660048201526024016105f8565b811561115c5783856001600160a01b0316826001600160a01b03167f8c5be1e5ebec7d5bd14f71427d1e84f3dd0314c0f7b2291e5b200ac8c7c3b92560405160405180910390a45b505b5050600090815260046020526040902080546001600160a01b0319166001600160a01b0392909216919091179055565b60008061119c858585611337565b90506001600160a01b0381166111f9576111f484600880546000838152600960205260408120829055600182018355919091527ff3f7a9fe364faab93b216da50a3214154f22a0a2b415b23a84c8169e8b636ee30155565b61121c565b846001600160a01b0316816001600160a01b03161461121c5761121c8185611430565b6001600160a01b03851661123857611233846114c1565b610c66565b846001600160a01b0316816001600160a01b031614610c6657610c668585611570565b61126583836115c0565b6108f06000848484610e31565b606061127d82610c13565b50600061129560408051602081019091526000815290565b905060008151116112b557604051806020016040528060008152506112e0565b806112bf84611625565b6040516020016112d0929190611d3b565b6040516020818303038152906040525b9392505050565b60006001600160e01b031982166380ac58cd60e01b148061131857506001600160e01b03198216635b5e139f60e01b145b8061050257506301ffc9a760e01b6001600160e01b0319831614610502565b6000828152600260205260408120546001600160a01b0390811690831615611364576113648184866116b8565b6001600160a01b038116156113a257611381600085600080611088565b6001600160a01b038116600090815260036020526040902080546000190190555b6001600160a01b038516156113d1576001600160a01b0385166000908152600360205260409020805460010190555b60008481526002602052604080822080546001600160a01b0319166001600160a01b0389811691821790925591518793918516917fddf252ad1be2c89b69c2b068fc378daa952ba7f163c4a11628f55a4df523b3ef91a4949350505050565b600061143b83610a00565b60008381526007602052604090205490915080821461148e576001600160a01b03841660009081526006602090815260408083208584528252808320548484528184208190558352600790915290208190555b5060009182526007602090815260408084208490556001600160a01b039094168352600681528383209183525290812055565b6008546000906114d390600190611d6a565b600083815260096020526040812054600880549394509092849081106114fb576114fb611ccb565b90600052602060002001549050806008838154811061151c5761151c611ccb565b600091825260208083209091019290925582815260099091526040808220849055858252812055600880548061155457611554611d8b565b6001900381819060005260206000200160009055905550505050565b6000600161157d84610a00565b6115879190611d6a565b6001600160a01b039093166000908152600660209081526040808320868452825280832085905593825260079052919091209190915550565b6001600160a01b0382166115ea57604051633250574960e11b8152600060048201526024016105f8565b60006115f883836000610c59565b90506001600160a01b038116156108f0576040516339e3563760e11b8152600060048201526024016105f8565b606060006116328361171c565b600101905060008167ffffffffffffffff81111561165257611652611988565b6040519080825280601f01601f19166020018201604052801561167c576020820181803683370190505b5090508181016020015b600019016f181899199a1a9b1b9c1cb0b131b232b360811b600a86061a8153600a850494508461168657509392505050565b6116c38383836117f4565b6108f0576001600160a01b0383166116f157604051637e27328960e01b8152600481018290526024016105f8565b60405163177e802f60e01b81526001600160a01b0383166004820152602481018290526044016105f8565b60008072184f03e93ff9f4daa797ed6e38ed64bf6a1f0160401b831061175b5772184f03e93ff9f4daa797ed6e38ed64bf6a1f0160401b830492506040015b6d04ee2d6d415b85acef81000000008310611787576d04ee2d6d415b85acef8100000000830492506020015b662386f26fc1000083106117a557662386f26fc10000830492506010015b6305f5e10083106117bd576305f5e100830492506008015b61271083106117d157612710830492506004015b606483106117e3576064830492506002015b600a83106105025760010192915050565b60006001600160a01b03831615801590610c665750826001600160a01b0316846001600160a01b0316148061182e575061182e8484610b85565b80610c665750506000908152600460205260409020546001600160a01b03908116911614919050565b6001600160e01b031981168114610b0957600080fd5b60006020828403121561187f57600080fd5b81356112e081611857565b60005b838110156118a557818101518382015260200161188d565b50506000910152565b600081518084526118c681602086016020860161188a565b601f01601f19169290920160200192915050565b6020815260006112e060208301846118ae565b6000602082840312156118ff57600080fd5b5035919050565b6001600160a01b0381168114610b0957600080fd5b6000806040838503121561192e57600080fd5b823561193981611906565b946020939093013593505050565b60008060006060848603121561195c57600080fd5b833561196781611906565b9250602084013561197781611906565b929592945050506040919091013590565b634e487b7160e01b600052604160045260246000fd5b600067ffffffffffffffff808411156119b9576119b9611988565b604051601f8501601f19908116603f011681019082821181831017156119e1576119e1611988565b816040528093508581528686860111156119fa57600080fd5b858560208301376000602087830101525050509392505050565b600060208284031215611a2657600080fd5b813567ffffffffffffffff811115611a3d57600080fd5b8201601f81018413611a4e57600080fd5b610c668482356020840161199e565b600060208284031215611a6f57600080fd5b81356112e081611906565b60008060408385031215611a8d57600080fd5b8235611a9881611906565b915060208301358015158114611aad57600080fd5b809150509250929050565b60008060008060808587031215611ace57600080fd5b8435611ad981611906565b93506020850135611ae981611906565b925060408501359150606085013567ffffffffffffffff811115611b0c57600080fd5b8501601f81018713611b1d57600080fd5b611b2c8782356020840161199e565b91505092959194509250565b60008060408385031215611b4b57600080fd5b8235611b5681611906565b91506020830135611aad81611906565b600181811c90821680611b7a57607f821691505b602082108103611b9a57634e487b7160e01b600052602260045260246000fd5b50919050565b600060208284031215611bb257600080fd5b81516112e081611906565b601f8211156108f057600081815260208120601f850160051c81016020861015611be45750805b601f850160051c820191505b81811015611c0357828155600101611bf0565b505050505050565b815167ffffffffffffffff811115611c2557611c25611988565b611c3981611c338454611b66565b84611bbd565b602080601f831160018114611c6e5760008415611c565750858301515b600019600386901b1c1916600185901b178555611c03565b600085815260208120601f198616915b82811015611c9d57888601518255948401946001909101908401611c7e565b5085821015611cbb5787850151600019600388901b60f8161c191681555b5050505050600190811b01905550565b634e487b7160e01b600052603260045260246000fd5b6001600160a01b0385811682528416602082015260408101839052608060608201819052600090611d14908301846118ae565b9695505050505050565b600060208284031215611d3057600080fd5b81516112e081611857565b60008351611d4d81846020880161188a565b835190830190611d6181836020880161188a565b01949350505050565b8181038181111561050257634e487b7160e01b600052601160045260246000fd5b634e487b7160e01b600052603160045260246000fdfea264697066735822122083a9f15c09baf1ef5e4324d515aa07d0e8a9aac40acb5ae152786d7a0080ab7364736f6c63430008140033a2646970667358221220a6f3d1d92b5cf1f90303844da8af3a7f4d434ce17d92b9c80595b1e15183023964736f6c63430008140033",
    "linkReferences": {}
  },
  "methodIdentifiers": {
    "deployContract(address,address,string,string,string,uint256)": "23ad28fc"
  },
  "id": 20
}