{
  "abi": [
    {
      "inputs": [
        {
          "internalType": "address",
          "name": "initialOwner",
          "type": "address"
        },
        {
          "internalType": "address",
          "name": "_oldContract",
          "type": "address"
        },
        {
          "internalType": "string",
          "name": "nameOfToken",
          "type": "string"
        },
        {
          "internalType": "string",
          "name": "symbolOfToken",
          "type": "string"
        },
        {
          "internalType": "string",
          "name": "_URIPrefix",
          "type": "string"
        },
        {
          "internalType": "bool",
          "name": "_URIHasId",
          "type": "bool"
        },
        {
          "internalType": "string",
          "name": "_URISuffix",
          "type": "string"
        },
        {
          "internalType": "uint256",
          "name": "_costPerMint",
          "type": "uint256"
        },
        {
          "internalType": "uint96",
          "name": "feeNumerator",
          "type": "uint96"
        },
        {
          "internalType": "uint256",
          "name": "_maxTokens",
          "type": "uint256"
        }
      ],
      "stateMutability": "nonpayable",
      "type": "constructor"
    },
    {
      "inputs": [
        {
          "internalType": "uint256",
          "name": "numerator",
          "type": "uint256"
        },
        {
          "internalType": "uint256",
          "name": "denominator",
          "type": "uint256"
        }
      ],
      "name": "ERC2981InvalidDefaultRoyalty",
      "type": "error"
    },
    {
      "inputs": [
        {
          "internalType": "address",
          "name": "receiver",
          "type": "address"
        }
      ],
      "name": "ERC2981InvalidDefaultRoyaltyReceiver",
      "type": "error"
    },
    {
      "inputs": [
        {
          "internalType": "uint256",
          "name": "tokenId",
          "type": "uint256"
        },
        {
          "internalType": "uint256",
          "name": "numerator",
          "type": "uint256"
        },
        {
          "internalType": "uint256",
          "name": "denominator",
          "type": "uint256"
        }
      ],
      "name": "ERC2981InvalidTokenRoyalty",
      "type": "error"
    },
    {
      "inputs": [
        {
          "internalType": "uint256",
          "name": "tokenId",
          "type": "uint256"
        },
        {
          "internalType": "address",
          "name": "receiver",
          "type": "address"
        }
      ],
      "name": "ERC2981InvalidTokenRoyaltyReceiver",
      "type": "error"
    },
    {
      "inputs": [
        {
          "internalType": "address",
          "name": "sender",
          "type": "address"
        },
        {
          "internalType": "uint256",
          "name": "tokenId",
          "type": "uint256"
        },
        {
          "internalType": "address",
          "name": "owner",
          "type": "address"
        }
      ],
      "name": "ERC721IncorrectOwner",
      "type": "error"
    },
    {
      "inputs": [
        {
          "internalType": "address",
          "name": "operator",
          "type": "address"
        },
        {
          "internalType": "uint256",
          "name": "tokenId",
          "type": "uint256"
        }
      ],
      "name": "ERC721InsufficientApproval",
      "type": "error"
    },
    {
      "inputs": [
        {
          "internalType": "address",
          "name": "approver",
          "type": "address"
        }
      ],
      "name": "ERC721InvalidApprover",
      "type": "error"
    },
    {
      "inputs": [
        {
          "internalType": "address",
          "name": "operator",
          "type": "address"
        }
      ],
      "name": "ERC721InvalidOperator",
      "type": "error"
    },
    {
      "inputs": [
        {
          "internalType": "address",
          "name": "owner",
          "type": "address"
        }
      ],
      "name": "ERC721InvalidOwner",
      "type": "error"
    },
    {
      "inputs": [
        {
          "internalType": "address",
          "name": "receiver",
          "type": "address"
        }
      ],
      "name": "ERC721InvalidReceiver",
      "type": "error"
    },
    {
      "inputs": [
        {
          "internalType": "address",
          "name": "sender",
          "type": "address"
        }
      ],
      "name": "ERC721InvalidSender",
      "type": "error"
    },
    {
      "inputs": [
        {
          "internalType": "uint256",
          "name": "tokenId",
          "type": "uint256"
        }
      ],
      "name": "ERC721NonexistentToken",
      "type": "error"
    },
    {
      "inputs": [],
      "name": "GmFam__MaxSupplyReached",
      "type": "error"
    },
    {
      "inputs": [],
      "name": "GmFam__NotEnoughFunds",
      "type": "error"
    },
    {
      "inputs": [],
      "name": "GmFam__TransferFailed",
      "type": "error"
    },
    {
      "inputs": [],
      "name": "GmFam__YouAreNotTheOwner",
      "type": "error"
    },
    {
      "inputs": [
        {
          "internalType": "uint256",
          "name": "",
          "type": "uint256"
        },
        {
          "internalType": "uint256",
          "name": "",
          "type": "uint256"
        }
      ],
      "name": "GmFam__YouMUSTPayForMint",
      "type": "error"
    },
    {
      "inputs": [
        {
          "internalType": "address",
          "name": "owner",
          "type": "address"
        }
      ],
      "name": "OwnableInvalidOwner",
      "type": "error"
    },
    {
      "inputs": [
        {
          "internalType": "address",
          "name": "account",
          "type": "address"
        }
      ],
      "name": "OwnableUnauthorizedAccount",
      "type": "error"
    },
    {
      "anonymous": false,
      "inputs": [
        {
          "indexed": true,
          "internalType": "address",
          "name": "owner",
          "type": "address"
        },
        {
          "indexed": true,
          "internalType": "address",
          "name": "approved",
          "type": "address"
        },
        {
          "indexed": true,
          "internalType": "uint256",
          "name": "tokenId",
          "type": "uint256"
        }
      ],
      "name": "Approval",
      "type": "event"
    },
    {
      "anonymous": false,
      "inputs": [
        {
          "indexed": true,
          "internalType": "address",
          "name": "owner",
          "type": "address"
        },
        {
          "indexed": true,
          "internalType": "address",
          "name": "operator",
          "type": "address"
        },
        {
          "indexed": false,
          "internalType": "bool",
          "name": "approved",
          "type": "bool"
        }
      ],
      "name": "ApprovalForAll",
      "type": "event"
    },
    {
      "anonymous": false,
      "inputs": [
        {
          "indexed": true,
          "internalType": "address",
          "name": "previousOwner",
          "type": "address"
        },
        {
          "indexed": true,
          "internalType": "address",
          "name": "newOwner",
          "type": "address"
        }
      ],
      "name": "OwnershipTransferred",
      "type": "event"
    },
    {
      "anonymous": false,
      "inputs": [
        {
          "indexed": true,
          "internalType": "address",
          "name": "from",
          "type": "address"
        },
        {
          "indexed": true,
          "internalType": "address",
          "name": "to",
          "type": "address"
        },
        {
          "indexed": true,
          "internalType": "uint256",
          "name": "tokenId",
          "type": "uint256"
        }
      ],
      "name": "Transfer",
      "type": "event"
    },
    {
      "inputs": [
        {
          "internalType": "address",
          "name": "to",
          "type": "address"
        },
        {
          "internalType": "uint256",
          "name": "tokenId",
          "type": "uint256"
        }
      ],
      "name": "approve",
      "outputs": [],
      "stateMutability": "nonpayable",
      "type": "function"
    },
    {
      "inputs": [
        {
          "internalType": "address",
          "name": "owner",
          "type": "address"
        }
      ],
      "name": "balanceOf",
      "outputs": [
        {
          "internalType": "uint256",
          "name": "",
          "type": "uint256"
        }
      ],
      "stateMutability": "view",
      "type": "function"
    },
    {
      "inputs": [
        {
          "internalType": "uint256",
          "name": "tokenId",
          "type": "uint256"
        }
      ],
      "name": "burn",
      "outputs": [],
      "stateMutability": "nonpayable",
      "type": "function"
    },
    {
      "inputs": [
        {
          "internalType": "uint256",
          "name": "tokenId",
          "type": "uint256"
        }
      ],
      "name": "byeBye",
      "outputs": [],
      "stateMutability": "nonpayable",
      "type": "function"
    },
    {
      "inputs": [
        {
          "internalType": "string",
          "name": "_URIPrefix",
          "type": "string"
        },
        {
          "internalType": "bool",
          "name": "_URIHasId",
          "type": "bool"
        },
        {
          "internalType": "string",
          "name": "_URISuffix",
          "type": "string"
        }
      ],
      "name": "changeBaseURI",
      "outputs": [],
      "stateMutability": "nonpayable",
      "type": "function"
    },
    {
      "inputs": [
        {
          "internalType": "uint256",
          "name": "newCost",
          "type": "uint256"
        }
      ],
      "name": "changeCost",
      "outputs": [],
      "stateMutability": "nonpayable",
      "type": "function"
    },
    {
      "inputs": [],
      "name": "costPerMint",
      "outputs": [
        {
          "internalType": "uint256",
          "name": "",
          "type": "uint256"
        }
      ],
      "stateMutability": "view",
      "type": "function"
    },
    {
      "inputs": [],
      "name": "counter",
      "outputs": [
        {
          "internalType": "uint256",
          "name": "",
          "type": "uint256"
        }
      ],
      "stateMutability": "view",
      "type": "function"
    },
    {
      "inputs": [
        {
          "internalType": "uint256",
          "name": "tokenId",
          "type": "uint256"
        }
      ],
      "name": "getApproved",
      "outputs": [
        {
          "internalType": "address",
          "name": "",
          "type": "address"
        }
      ],
      "stateMutability": "view",
      "type": "function"
    },
    {
      "inputs": [
        {
          "internalType": "address",
          "name": "owner",
          "type": "address"
        },
        {
          "internalType": "address",
          "name": "operator",
          "type": "address"
        }
      ],
      "name": "isApprovedForAll",
      "outputs": [
        {
          "internalType": "bool",
          "name": "",
          "type": "bool"
        }
      ],
      "stateMutability": "view",
      "type": "function"
    },
    {
      "inputs": [],
      "name": "maxTokens",
      "outputs": [
        {
          "internalType": "uint256",
          "name": "",
          "type": "uint256"
        }
      ],
      "stateMutability": "view",
      "type": "function"
    },
    {
      "inputs": [],
      "name": "name",
      "outputs": [
        {
          "internalType": "string",
          "name": "",
          "type": "string"
        }
      ],
      "stateMutability": "view",
      "type": "function"
    },
    {
      "inputs": [],
      "name": "owner",
      "outputs": [
        {
          "internalType": "address",
          "name": "",
          "type": "address"
        }
      ],
      "stateMutability": "view",
      "type": "function"
    },
    {
      "inputs": [
        {
          "internalType": "uint256",
          "name": "tokenId",
          "type": "uint256"
        }
      ],
      "name": "ownerOf",
      "outputs": [
        {
          "internalType": "address",
          "name": "",
          "type": "address"
        }
      ],
      "stateMutability": "view",
      "type": "function"
    },
    {
      "inputs": [],
      "name": "readCost",
      "outputs": [
        {
          "internalType": "uint256",
          "name": "",
          "type": "uint256"
        }
      ],
      "stateMutability": "view",
      "type": "function"
    },
    {
      "inputs": [],
      "name": "renounceOwnership",
      "outputs": [],
      "stateMutability": "nonpayable",
      "type": "function"
    },
    {
      "inputs": [
        {
          "internalType": "uint256",
          "name": "tokenId",
          "type": "uint256"
        },
        {
          "internalType": "uint256",
          "name": "salePrice",
          "type": "uint256"
        }
      ],
      "name": "royaltyInfo",
      "outputs": [
        {
          "internalType": "address",
          "name": "",
          "type": "address"
        },
        {
          "internalType": "uint256",
          "name": "",
          "type": "uint256"
        }
      ],
      "stateMutability": "view",
      "type": "function"
    },
    {
      "inputs": [
        {
          "internalType": "uint256",
          "name": "tokenId",
          "type": "uint256"
        }
      ],
      "name": "safeMint",
      "outputs": [],
      "stateMutability": "payable",
      "type": "function"
    },
    {
      "inputs": [
        {
          "internalType": "address",
          "name": "from",
          "type": "address"
        },
        {
          "internalType": "address",
          "name": "to",
          "type": "address"
        },
        {
          "internalType": "uint256",
          "name": "tokenId",
          "type": "uint256"
        }
      ],
      "name": "safeTransferFrom",
      "outputs": [],
      "stateMutability": "nonpayable",
      "type": "function"
    },
    {
      "inputs": [
        {
          "internalType": "address",
          "name": "from",
          "type": "address"
        },
        {
          "internalType": "address",
          "name": "to",
          "type": "address"
        },
        {
          "internalType": "uint256",
          "name": "tokenId",
          "type": "uint256"
        },
        {
          "internalType": "bytes",
          "name": "data",
          "type": "bytes"
        }
      ],
      "name": "safeTransferFrom",
      "outputs": [],
      "stateMutability": "nonpayable",
      "type": "function"
    },
    {
      "inputs": [],
      "name": "seeMaxTokens",
      "outputs": [
        {
          "internalType": "uint256",
          "name": "",
          "type": "uint256"
        }
      ],
      "stateMutability": "view",
      "type": "function"
    },
    {
      "inputs": [
        {
          "internalType": "address",
          "name": "operator",
          "type": "address"
        },
        {
          "internalType": "bool",
          "name": "approved",
          "type": "bool"
        }
      ],
      "name": "setApprovalForAll",
      "outputs": [],
      "stateMutability": "nonpayable",
      "type": "function"
    },
    {
      "inputs": [
        {
          "internalType": "bytes4",
          "name": "interfaceId",
          "type": "bytes4"
        }
      ],
      "name": "supportsInterface",
      "outputs": [
        {
          "internalType": "bool",
          "name": "",
          "type": "bool"
        }
      ],
      "stateMutability": "view",
      "type": "function"
    },
    {
      "inputs": [],
      "name": "symbol",
      "outputs": [
        {
          "internalType": "string",
          "name": "",
          "type": "string"
        }
      ],
      "stateMutability": "view",
      "type": "function"
    },
    {
      "inputs": [
        {
          "internalType": "uint256",
          "name": "tokenId",
          "type": "uint256"
        }
      ],
      "name": "tokenURI",
      "outputs": [
        {
          "internalType": "string",
          "name": "",
          "type": "string"
        }
      ],
      "stateMutability": "view",
      "type": "function"
    },
    {
      "inputs": [
        {
          "internalType": "address",
          "name": "from",
          "type": "address"
        },
        {
          "internalType": "address",
          "name": "to",
          "type": "address"
        },
        {
          "internalType": "uint256",
          "name": "tokenId",
          "type": "uint256"
        }
      ],
      "name": "transferFrom",
      "outputs": [],
      "stateMutability": "nonpayable",
      "type": "function"
    },
    {
      "inputs": [
        {
          "internalType": "address payable",
          "name": "to",
          "type": "address"
        },
        {
          "internalType": "uint256",
          "name": "amount",
          "type": "uint256"
        }
      ],
      "name": "transferFunds",
      "outputs": [],
      "stateMutability": "nonpayable",
      "type": "function"
    },
    {
      "inputs": [
        {
          "internalType": "address",
          "name": "newOwner",
          "type": "address"
        }
      ],
      "name": "transferOwnership",
      "outputs": [],
      "stateMutability": "nonpayable",
      "type": "function"
    }
  ],
  "bytecode": {
    "object": "0x60806040523480156200001157600080fd5b50604051620020ad380380620020ad833981016040819052620000349162000306565b8988886002620000458382620004af565b506003620000548282620004af565b5050506001600160a01b0381166200008757604051631e4fbdf760e01b8152600060048201526024015b60405180910390fd5b620000928162000102565b50600980546001600160a01b0319166001600160a01b038b16179055600b620000bc8782620004af565b50600c805460ff1916861515179055600d620000d98582620004af565b50600e819055600a83905582620000f1308462000154565b50505050505050505050506200057b565b600880546001600160a01b038381166001600160a01b0319831681179093556040519116919082907f8be0079c531659141344cd1fd0a4f28419497f9722a3daafe3b4186f6b6457e090600090a35050565b6127106001600160601b0382168110156200019557604051636f483d0960e01b81526001600160601b0383166004820152602481018290526044016200007e565b6001600160a01b038316620001c157604051635b6cc80560e11b8152600060048201526024016200007e565b50604080518082019091526001600160a01b039092168083526001600160601b039091166020909201829052600160a01b90910217600055565b80516001600160a01b03811681146200021357600080fd5b919050565b634e487b7160e01b600052604160045260246000fd5b600082601f8301126200024057600080fd5b81516001600160401b03808211156200025d576200025d62000218565b604051601f8301601f19908116603f0116810190828211818310171562000288576200028862000218565b81604052838152602092508683858801011115620002a557600080fd5b600091505b83821015620002c95785820183015181830184015290820190620002aa565b600093810190920192909252949350505050565b805180151581146200021357600080fd5b80516001600160601b03811681146200021357600080fd5b6000806000806000806000806000806101408b8d0312156200032757600080fd5b620003328b620001fb565b99506200034260208c01620001fb565b60408c01519099506001600160401b03808211156200036057600080fd5b6200036e8e838f016200022e565b995060608d01519150808211156200038557600080fd5b620003938e838f016200022e565b985060808d0151915080821115620003aa57600080fd5b620003b88e838f016200022e565b9750620003c860a08e01620002dd565b965060c08d0151915080821115620003df57600080fd5b50620003ee8d828e016200022e565b94505060e08b01519250620004076101008c01620002ee565b91506101208b015190509295989b9194979a5092959850565b600181811c908216806200043557607f821691505b6020821081036200045657634e487b7160e01b600052602260045260246000fd5b50919050565b601f821115620004aa57600081815260208120601f850160051c81016020861015620004855750805b601f850160051c820191505b81811015620004a65782815560010162000491565b5050505b505050565b81516001600160401b03811115620004cb57620004cb62000218565b620004e381620004dc845462000420565b846200045c565b602080601f8311600181146200051b5760008415620005025750858301515b600019600386901b1c1916600185901b178555620004a6565b600085815260208120601f198616915b828110156200054c578886015182559484019460019091019084016200052b565b50858210156200056b5787850151600019600388901b60f8161c191681555b5050505050600190811b01905550565b611b22806200058b6000396000f3fe6080604052600436106101b75760003560e01c806382f2de09116100ec578063b88d4fde1161008a578063ceaa162011610064578063ceaa1620146104cb578063e8315742146104eb578063e985e9c514610501578063f2fde38b1461052157600080fd5b8063b88d4fde14610475578063b95d366b14610495578063c87b56dd146104ab57600080fd5b8063957cbd2e116100c6578063957cbd2e1461040057806395d89b4114610420578063990dc9db14610435578063a22cb4651461045557600080fd5b806382f2de09146103b85780638da5cb5b146103cd57806392a1545e146103eb57600080fd5b806342842e0e1161015957806361bc221a1161013357806361bc221a1461033f5780636352211e1461036357806370a0823114610383578063715018a6146103a357600080fd5b806342842e0e146102df57806342966c68146102ff5780635cb85cd21461031f57600080fd5b8063095ea7b311610195578063095ea7b31461024b57806323b872dd1461026d5780632a55205a1461028d57806331c864e8146102cc57600080fd5b806301ffc9a7146101bc57806306fdde03146101f1578063081812fc14610213575b600080fd5b3480156101c857600080fd5b506101dc6101d7366004611473565b610541565b60405190151581526020015b60405180910390f35b3480156101fd57600080fd5b50610206610552565b6040516101e891906114e7565b34801561021f57600080fd5b5061023361022e3660046114fa565b6105e4565b6040516001600160a01b0390911681526020016101e8565b34801561025757600080fd5b5061026b610266366004611528565b61060d565b005b34801561027957600080fd5b5061026b610288366004611554565b61061c565b34801561029957600080fd5b506102ad6102a8366004611595565b6106ac565b604080516001600160a01b0390931683526020830191909152016101e8565b61026b6102da3660046114fa565b610758565b3480156102eb57600080fd5b5061026b6102fa366004611554565b61090f565b34801561030b57600080fd5b5061026b61031a3660046114fa565b61092f565b34801561032b57600080fd5b5061026b61033a3660046114fa565b61093b565b34801561034b57600080fd5b50610355600f5481565b6040519081526020016101e8565b34801561036f57600080fd5b5061023361037e3660046114fa565b610948565b34801561038f57600080fd5b5061035561039e3660046115b7565b610953565b3480156103af57600080fd5b5061026b61099b565b3480156103c457600080fd5b50600a54610355565b3480156103d957600080fd5b506008546001600160a01b0316610233565b3480156103f757600080fd5b50600e54610355565b34801561040c57600080fd5b5061026b61041b3660046114fa565b6109af565b34801561042c57600080fd5b50610206610a6c565b34801561044157600080fd5b5061026b610450366004611528565b610a7b565b34801561046157600080fd5b5061026b6104703660046115e4565b610ae7565b34801561048157600080fd5b5061026b6104903660046116a5565b610af2565b3480156104a157600080fd5b50610355600a5481565b3480156104b757600080fd5b506102066104c63660046114fa565b610b09565b3480156104d757600080fd5b5061026b6104e6366004611745565b610b8f565b3480156104f757600080fd5b50610355600e5481565b34801561050d57600080fd5b506101dc61051c3660046117b9565b610bbe565b34801561052d57600080fd5b5061026b61053c3660046115b7565b610bec565b600061054c82610c2a565b92915050565b606060028054610561906117f2565b80601f016020809104026020016040519081016040528092919081815260200182805461058d906117f2565b80156105da5780601f106105af576101008083540402835291602001916105da565b820191906000526020600020905b8154815290600101906020018083116105bd57829003601f168201915b5050505050905090565b60006105ef82610c35565b506000828152600660205260409020546001600160a01b031661054c565b610618828233610c6e565b5050565b6001600160a01b03821661064b57604051633250574960e11b8152600060048201526024015b60405180910390fd5b6000610658838333610c7b565b9050836001600160a01b0316816001600160a01b0316146106a6576040516364283d7b60e01b81526001600160a01b0380861660048301526024820184905282166044820152606401610642565b50505050565b60008281526001602090815260408083208151808301909252546001600160a01b038116808352600160a01b9091046001600160601b03169282019290925282916107215750604080518082019091526000546001600160a01b0381168252600160a01b90046001600160601b031660208201525b602081015160009061271090610740906001600160601b031687611842565b61074a9190611859565b915196919550909350505050565b600e54600f541061077c5760405163828add2760e01b815260040160405180910390fd5b600a543410156107ac57600a54604051633a38efa560e11b81523460048201526024810191909152604401610642565b6009546040516331a9108f60e11b8152600481018390526001600160a01b0390911690636352211e90602401602060405180830381865afa1580156107f5573d6000803e3d6000fd5b505050506040513d601f19601f82011682018060405250810190610819919061187b565b6001600160a01b0316336001600160a01b03161461084a57604051633f8ed84960e21b815260040160405180910390fd5b60405130903480156108fc02916000818181858888f19350505050156108835760405163ce6cb19960e01b815260040160405180910390fd5b6009546040516323b872dd60e01b8152336004820152306024820152604481018390526001600160a01b03909116906323b872dd90606401600060405180830381600087803b1580156108d557600080fd5b505af11580156108e9573d6000803e3d6000fd5b505050506108f73382610c90565b600f805490600061090783611898565b919050555050565b61092a83838360405180602001604052806000815250610af2565b505050565b61061860008233610c7b565b610943610caa565b600a55565b600061054c82610c35565b60006001600160a01b03821661097f576040516322718ad960e21b815260006004820152602401610642565b506001600160a01b031660009081526005602052604090205490565b6109a3610caa565b6109ad6000610cd7565b565b6109b881610948565b6001600160a01b0316336001600160a01b0316146109e957604051633f8ed84960e21b815260040160405180910390fd5b600954604051632142170760e11b8152306004820152336024820152604481018390526001600160a01b03909116906342842e0e90606401600060405180830381600087803b158015610a3b57600080fd5b505af1158015610a4f573d6000803e3d6000fd5b50505050610a5c81610d29565b600f8054906000610907836118b1565b606060038054610561906117f2565b610a83610caa565b80471015610aa45760405163fcb193c560e01b815260040160405180910390fd5b6040516001600160a01b0383169082156108fc029083906000818181858888f19350505050156106185760405163ce6cb19960e01b815260040160405180910390fd5b610618338383610d64565b610afd84848461061c565b6106a684848484610e03565b600c5460609060ff1615610b6f57610b1f610f2c565b610b2883610f3b565b604051602001610b399291906118c8565b60408051601f1981840301815290829052610b5991600d906020016118f7565b6040516020818303038152906040529050919050565b610b77610f2c565b600d604051602001610b599291906118f7565b919050565b610b97610caa565b600b610ba384826119d2565b50600c805460ff1916831515179055600d6106a682826119d2565b6001600160a01b03918216600090815260076020908152604080832093909416825291909152205460ff1690565b610bf4610caa565b6001600160a01b038116610c1e57604051631e4fbdf760e01b815260006004820152602401610642565b610c2781610cd7565b50565b600061054c82610fce565b6000818152600460205260408120546001600160a01b03168061054c57604051637e27328960e01b815260048101849052602401610642565b61092a838383600161100e565b6000610c88848484611114565b949350505050565b61061882826040518060200160405280600081525061120d565b6008546001600160a01b031633146109ad5760405163118cdaa760e01b8152336004820152602401610642565b600880546001600160a01b038381166001600160a01b0319831681179093556040519116919082907f8be0079c531659141344cd1fd0a4f28419497f9722a3daafe3b4186f6b6457e090600090a35050565b6000610d386000836000610c7b565b90506001600160a01b03811661061857604051637e27328960e01b815260048101839052602401610642565b6001600160a01b038216610d9657604051630b61174360e31b81526001600160a01b0383166004820152602401610642565b6001600160a01b03838116600081815260076020908152604080832094871680845294825291829020805460ff191686151590811790915591519182527f17307eab39ab6107e8899845ad3d59bd9653f200f220920489ca2b5937696c31910160405180910390a3505050565b6001600160a01b0383163b156106a657604051630a85bd0160e11b81526001600160a01b0384169063150b7a0290610e45903390889087908790600401611a92565b6020604051808303816000875af1925050508015610e80575060408051601f3d908101601f19168201909252610e7d91810190611acf565b60015b610ee9573d808015610eae576040519150601f19603f3d011682016040523d82523d6000602084013e610eb3565b606091505b508051600003610ee157604051633250574960e11b81526001600160a01b0385166004820152602401610642565b805181602001fd5b6001600160e01b03198116630a85bd0160e11b14610f2557604051633250574960e11b81526001600160a01b0385166004820152602401610642565b5050505050565b6060600b8054610561906117f2565b60606000610f4883611224565b600101905060008167ffffffffffffffff811115610f6857610f68611619565b6040519080825280601f01601f191660200182016040528015610f92576020820181803683370190505b5090508181016020015b600019016f181899199a1a9b1b9c1cb0b131b232b360811b600a86061a8153600a8504945084610f9c57509392505050565b60006001600160e01b031982166380ac58cd60e01b1480610fff57506001600160e01b03198216635b5e139f60e01b145b8061054c575061054c826112fc565b808061102257506001600160a01b03821615155b156110e457600061103284610c35565b90506001600160a01b0383161580159061105e5750826001600160a01b0316816001600160a01b031614155b8015611071575061106f8184610bbe565b155b1561109a5760405163a9fbf51f60e01b81526001600160a01b0384166004820152602401610642565b81156110e25783856001600160a01b0316826001600160a01b03167f8c5be1e5ebec7d5bd14f71427d1e84f3dd0314c0f7b2291e5b200ac8c7c3b92560405160405180910390a45b505b5050600090815260066020526040902080546001600160a01b0319166001600160a01b0392909216919091179055565b6000828152600460205260408120546001600160a01b039081169083161561114157611141818486611331565b6001600160a01b0381161561117f5761115e60008560008061100e565b6001600160a01b038116600090815260056020526040902080546000190190555b6001600160a01b038516156111ae576001600160a01b0385166000908152600560205260409020805460010190555b60008481526004602052604080822080546001600160a01b0319166001600160a01b0389811691821790925591518793918516917fddf252ad1be2c89b69c2b068fc378daa952ba7f163c4a11628f55a4df523b3ef91a4949350505050565b6112178383611395565b61092a6000848484610e03565b60008072184f03e93ff9f4daa797ed6e38ed64bf6a1f0160401b83106112635772184f03e93ff9f4daa797ed6e38ed64bf6a1f0160401b830492506040015b6d04ee2d6d415b85acef8100000000831061128f576d04ee2d6d415b85acef8100000000830492506020015b662386f26fc1000083106112ad57662386f26fc10000830492506010015b6305f5e10083106112c5576305f5e100830492506008015b61271083106112d957612710830492506004015b606483106112eb576064830492506002015b600a831061054c5760010192915050565b60006001600160e01b0319821663152a902d60e11b148061054c57506301ffc9a760e01b6001600160e01b031983161461054c565b61133c8383836113fa565b61092a576001600160a01b03831661136a57604051637e27328960e01b815260048101829052602401610642565b60405163177e802f60e01b81526001600160a01b038316600482015260248101829052604401610642565b6001600160a01b0382166113bf57604051633250574960e11b815260006004820152602401610642565b60006113cd83836000610c7b565b90506001600160a01b0381161561092a576040516339e3563760e11b815260006004820152602401610642565b60006001600160a01b03831615801590610c885750826001600160a01b0316846001600160a01b0316148061143457506114348484610bbe565b80610c885750506000908152600660205260409020546001600160a01b03908116911614919050565b6001600160e01b031981168114610c2757600080fd5b60006020828403121561148557600080fd5b81356114908161145d565b9392505050565b60005b838110156114b257818101518382015260200161149a565b50506000910152565b600081518084526114d3816020860160208601611497565b601f01601f19169290920160200192915050565b60208152600061149060208301846114bb565b60006020828403121561150c57600080fd5b5035919050565b6001600160a01b0381168114610c2757600080fd5b6000806040838503121561153b57600080fd5b823561154681611513565b946020939093013593505050565b60008060006060848603121561156957600080fd5b833561157481611513565b9250602084013561158481611513565b929592945050506040919091013590565b600080604083850312156115a857600080fd5b50508035926020909101359150565b6000602082840312156115c957600080fd5b813561149081611513565b80358015158114610b8a57600080fd5b600080604083850312156115f757600080fd5b823561160281611513565b9150611610602084016115d4565b90509250929050565b634e487b7160e01b600052604160045260246000fd5b600067ffffffffffffffff8084111561164a5761164a611619565b604051601f8501601f19908116603f0116810190828211818310171561167257611672611619565b8160405280935085815286868601111561168b57600080fd5b858560208301376000602087830101525050509392505050565b600080600080608085870312156116bb57600080fd5b84356116c681611513565b935060208501356116d681611513565b925060408501359150606085013567ffffffffffffffff8111156116f957600080fd5b8501601f8101871361170a57600080fd5b6117198782356020840161162f565b91505092959194509250565b600082601f83011261173657600080fd5b6114908383356020850161162f565b60008060006060848603121561175a57600080fd5b833567ffffffffffffffff8082111561177257600080fd5b61177e87838801611725565b945061178c602087016115d4565b935060408601359150808211156117a257600080fd5b506117af86828701611725565b9150509250925092565b600080604083850312156117cc57600080fd5b82356117d781611513565b915060208301356117e781611513565b809150509250929050565b600181811c9082168061180657607f821691505b60208210810361182657634e487b7160e01b600052602260045260246000fd5b50919050565b634e487b7160e01b600052601160045260246000fd5b808202811582820484141761054c5761054c61182c565b60008261187657634e487b7160e01b600052601260045260246000fd5b500490565b60006020828403121561188d57600080fd5b815161149081611513565b6000600182016118aa576118aa61182c565b5060010190565b6000816118c0576118c061182c565b506000190190565b600083516118da818460208801611497565b8351908301906118ee818360208801611497565b01949350505050565b60008351602061190a8285838901611497565b81840191506000855461191c816117f2565b60018281168015611934576001811461194957611975565b60ff1984168752821515830287019450611975565b896000528560002060005b8481101561196d57815489820152908301908701611954565b505082870194505b50929998505050505050505050565b601f82111561092a57600081815260208120601f850160051c810160208610156119ab5750805b601f850160051c820191505b818110156119ca578281556001016119b7565b505050505050565b815167ffffffffffffffff8111156119ec576119ec611619565b611a00816119fa84546117f2565b84611984565b602080601f831160018114611a355760008415611a1d5750858301515b600019600386901b1c1916600185901b1785556119ca565b600085815260208120601f198616915b82811015611a6457888601518255948401946001909101908401611a45565b5085821015611a825787850151600019600388901b60f8161c191681555b5050505050600190811b01905550565b6001600160a01b0385811682528416602082015260408101839052608060608201819052600090611ac5908301846114bb565b9695505050505050565b600060208284031215611ae157600080fd5b81516114908161145d56fea26469706673582212202c5f1053c6727d1cb170bc87a5b1375a2f492c88bef200571bdc8a29eaaf19c064736f6c63430008140033",
    "linkReferences": {}
  },
  "methodIdentifiers": {
    "approve(address,uint256)": "095ea7b3",
    "balanceOf(address)": "70a08231",
    "burn(uint256)": "42966c68",
    "byeBye(uint256)": "957cbd2e",
    "changeBaseURI(string,bool,string)": "ceaa1620",
    "changeCost(uint256)": "5cb85cd2",
    "costPerMint()": "b95d366b",
    "counter()": "61bc221a",
    "getApproved(uint256)": "081812fc",
    "isApprovedForAll(address,address)": "e985e9c5",
    "maxTokens()": "e8315742",
    "name()": "06fdde03",
    "owner()": "8da5cb5b",
    "ownerOf(uint256)": "6352211e",
    "readCost()": "82f2de09",
    "renounceOwnership()": "715018a6",
    "royaltyInfo(uint256,uint256)": "2a55205a",
    "safeMint(uint256)": "31c864e8",
    "safeTransferFrom(address,address,uint256)": "42842e0e",
    "safeTransferFrom(address,address,uint256,bytes)": "b88d4fde",
    "seeMaxTokens()": "92a1545e",
    "setApprovalForAll(address,bool)": "a22cb465",
    "supportsInterface(bytes4)": "01ffc9a7",
    "symbol()": "95d89b41",
    "tokenURI(uint256)": "c87b56dd",
    "transferFrom(address,address,uint256)": "23b872dd",
    "transferFunds(address,uint256)": "990dc9db",
    "transferOwnership(address)": "f2fde38b"
  },
  "id": 33
}