{
  "abi": [
    {
      "inputs": [
        {
          "internalType": "address",
          "name": "initialOwner",
          "type": "address"
        },
        {
          "internalType": "address",
          "name": "_oldContract",
          "type": "address"
        },
        {
          "internalType": "string",
          "name": "nameOfToken",
          "type": "string"
        },
        {
          "internalType": "string",
          "name": "symbolOfToken",
          "type": "string"
        },
        {
          "internalType": "string",
          "name": "_baseURI",
          "type": "string"
        },
        {
          "internalType": "uint256",
          "name": "_costPerMint",
          "type": "uint256"
        }
      ],
      "stateMutability": "nonpayable",
      "type": "constructor"
    },
    {
      "inputs": [],
      "name": "ERC721EnumerableForbiddenBatchMint",
      "type": "error"
    },
    {
      "inputs": [
        {
          "internalType": "address",
          "name": "sender",
          "type": "address"
        },
        {
          "internalType": "uint256",
          "name": "tokenId",
          "type": "uint256"
        },
        {
          "internalType": "address",
          "name": "owner",
          "type": "address"
        }
      ],
      "name": "ERC721IncorrectOwner",
      "type": "error"
    },
    {
      "inputs": [
        {
          "internalType": "address",
          "name": "operator",
          "type": "address"
        },
        {
          "internalType": "uint256",
          "name": "tokenId",
          "type": "uint256"
        }
      ],
      "name": "ERC721InsufficientApproval",
      "type": "error"
    },
    {
      "inputs": [
        {
          "internalType": "address",
          "name": "approver",
          "type": "address"
        }
      ],
      "name": "ERC721InvalidApprover",
      "type": "error"
    },
    {
      "inputs": [
        {
          "internalType": "address",
          "name": "operator",
          "type": "address"
        }
      ],
      "name": "ERC721InvalidOperator",
      "type": "error"
    },
    {
      "inputs": [
        {
          "internalType": "address",
          "name": "owner",
          "type": "address"
        }
      ],
      "name": "ERC721InvalidOwner",
      "type": "error"
    },
    {
      "inputs": [
        {
          "internalType": "address",
          "name": "receiver",
          "type": "address"
        }
      ],
      "name": "ERC721InvalidReceiver",
      "type": "error"
    },
    {
      "inputs": [
        {
          "internalType": "address",
          "name": "sender",
          "type": "address"
        }
      ],
      "name": "ERC721InvalidSender",
      "type": "error"
    },
    {
      "inputs": [
        {
          "internalType": "uint256",
          "name": "tokenId",
          "type": "uint256"
        }
      ],
      "name": "ERC721NonexistentToken",
      "type": "error"
    },
    {
      "inputs": [
        {
          "internalType": "address",
          "name": "owner",
          "type": "address"
        },
        {
          "internalType": "uint256",
          "name": "index",
          "type": "uint256"
        }
      ],
      "name": "ERC721OutOfBoundsIndex",
      "type": "error"
    },
    {
      "inputs": [
        {
          "internalType": "address",
          "name": "owner",
          "type": "address"
        }
      ],
      "name": "OwnableInvalidOwner",
      "type": "error"
    },
    {
      "inputs": [
        {
          "internalType": "address",
          "name": "account",
          "type": "address"
        }
      ],
      "name": "OwnableUnauthorizedAccount",
      "type": "error"
    },
    {
      "inputs": [],
      "name": "YouAreNotTheOwner",
      "type": "error"
    },
    {
      "inputs": [],
      "name": "YouMUSTPayForMint",
      "type": "error"
    },
    {
      "anonymous": false,
      "inputs": [
        {
          "indexed": true,
          "internalType": "address",
          "name": "owner",
          "type": "address"
        },
        {
          "indexed": true,
          "internalType": "address",
          "name": "approved",
          "type": "address"
        },
        {
          "indexed": true,
          "internalType": "uint256",
          "name": "tokenId",
          "type": "uint256"
        }
      ],
      "name": "Approval",
      "type": "event"
    },
    {
      "anonymous": false,
      "inputs": [
        {
          "indexed": true,
          "internalType": "address",
          "name": "owner",
          "type": "address"
        },
        {
          "indexed": true,
          "internalType": "address",
          "name": "operator",
          "type": "address"
        },
        {
          "indexed": false,
          "internalType": "bool",
          "name": "approved",
          "type": "bool"
        }
      ],
      "name": "ApprovalForAll",
      "type": "event"
    },
    {
      "anonymous": false,
      "inputs": [
        {
          "indexed": false,
          "internalType": "uint256",
          "name": "_fromTokenId",
          "type": "uint256"
        },
        {
          "indexed": false,
          "internalType": "uint256",
          "name": "_toTokenId",
          "type": "uint256"
        }
      ],
      "name": "BatchMetadataUpdate",
      "type": "event"
    },
    {
      "anonymous": false,
      "inputs": [
        {
          "indexed": false,
          "internalType": "uint256",
          "name": "_tokenId",
          "type": "uint256"
        }
      ],
      "name": "MetadataUpdate",
      "type": "event"
    },
    {
      "anonymous": false,
      "inputs": [
        {
          "indexed": true,
          "internalType": "address",
          "name": "previousOwner",
          "type": "address"
        },
        {
          "indexed": true,
          "internalType": "address",
          "name": "newOwner",
          "type": "address"
        }
      ],
      "name": "OwnershipTransferred",
      "type": "event"
    },
    {
      "anonymous": false,
      "inputs": [
        {
          "indexed": true,
          "internalType": "address",
          "name": "from",
          "type": "address"
        },
        {
          "indexed": true,
          "internalType": "address",
          "name": "to",
          "type": "address"
        },
        {
          "indexed": true,
          "internalType": "uint256",
          "name": "tokenId",
          "type": "uint256"
        }
      ],
      "name": "Transfer",
      "type": "event"
    },
    {
      "inputs": [
        {
          "internalType": "address",
          "name": "to",
          "type": "address"
        },
        {
          "internalType": "uint256",
          "name": "tokenId",
          "type": "uint256"
        }
      ],
      "name": "approve",
      "outputs": [],
      "stateMutability": "nonpayable",
      "type": "function"
    },
    {
      "inputs": [
        {
          "internalType": "address",
          "name": "owner",
          "type": "address"
        }
      ],
      "name": "balanceOf",
      "outputs": [
        {
          "internalType": "uint256",
          "name": "",
          "type": "uint256"
        }
      ],
      "stateMutability": "view",
      "type": "function"
    },
    {
      "inputs": [],
      "name": "baseURI",
      "outputs": [
        {
          "internalType": "string",
          "name": "",
          "type": "string"
        }
      ],
      "stateMutability": "view",
      "type": "function"
    },
    {
      "inputs": [
        {
          "internalType": "uint256",
          "name": "tokenId",
          "type": "uint256"
        }
      ],
      "name": "burn",
      "outputs": [],
      "stateMutability": "nonpayable",
      "type": "function"
    },
    {
      "inputs": [
        {
          "internalType": "uint256",
          "name": "tokenId",
          "type": "uint256"
        }
      ],
      "name": "byeBye",
      "outputs": [],
      "stateMutability": "nonpayable",
      "type": "function"
    },
    {
      "inputs": [
        {
          "internalType": "string",
          "name": "_baseURI",
          "type": "string"
        }
      ],
      "name": "changeBaseURI",
      "outputs": [],
      "stateMutability": "nonpayable",
      "type": "function"
    },
    {
      "inputs": [
        {
          "internalType": "uint256",
          "name": "newCost",
          "type": "uint256"
        }
      ],
      "name": "changeCost",
      "outputs": [],
      "stateMutability": "nonpayable",
      "type": "function"
    },
    {
      "inputs": [],
      "name": "costPerMint",
      "outputs": [
        {
          "internalType": "uint256",
          "name": "",
          "type": "uint256"
        }
      ],
      "stateMutability": "view",
      "type": "function"
    },
    {
      "inputs": [
        {
          "internalType": "uint256",
          "name": "tokenId",
          "type": "uint256"
        }
      ],
      "name": "getApproved",
      "outputs": [
        {
          "internalType": "address",
          "name": "",
          "type": "address"
        }
      ],
      "stateMutability": "view",
      "type": "function"
    },
    {
      "inputs": [
        {
          "internalType": "address",
          "name": "owner",
          "type": "address"
        },
        {
          "internalType": "address",
          "name": "operator",
          "type": "address"
        }
      ],
      "name": "isApprovedForAll",
      "outputs": [
        {
          "internalType": "bool",
          "name": "",
          "type": "bool"
        }
      ],
      "stateMutability": "view",
      "type": "function"
    },
    {
      "inputs": [],
      "name": "name",
      "outputs": [
        {
          "internalType": "string",
          "name": "",
          "type": "string"
        }
      ],
      "stateMutability": "view",
      "type": "function"
    },
    {
      "inputs": [],
      "name": "owner",
      "outputs": [
        {
          "internalType": "address",
          "name": "",
          "type": "address"
        }
      ],
      "stateMutability": "view",
      "type": "function"
    },
    {
      "inputs": [
        {
          "internalType": "uint256",
          "name": "tokenId",
          "type": "uint256"
        }
      ],
      "name": "ownerOf",
      "outputs": [
        {
          "internalType": "address",
          "name": "",
          "type": "address"
        }
      ],
      "stateMutability": "view",
      "type": "function"
    },
    {
      "inputs": [],
      "name": "readCost",
      "outputs": [
        {
          "internalType": "uint256",
          "name": "",
          "type": "uint256"
        }
      ],
      "stateMutability": "view",
      "type": "function"
    },
    {
      "inputs": [],
      "name": "renounceOwnership",
      "outputs": [],
      "stateMutability": "nonpayable",
      "type": "function"
    },
    {
      "inputs": [
        {
          "internalType": "uint256",
          "name": "tokenId",
          "type": "uint256"
        }
      ],
      "name": "safeMint",
      "outputs": [],
      "stateMutability": "nonpayable",
      "type": "function"
    },
    {
      "inputs": [
        {
          "internalType": "address",
          "name": "from",
          "type": "address"
        },
        {
          "internalType": "address",
          "name": "to",
          "type": "address"
        },
        {
          "internalType": "uint256",
          "name": "tokenId",
          "type": "uint256"
        }
      ],
      "name": "safeTransferFrom",
      "outputs": [],
      "stateMutability": "nonpayable",
      "type": "function"
    },
    {
      "inputs": [
        {
          "internalType": "address",
          "name": "from",
          "type": "address"
        },
        {
          "internalType": "address",
          "name": "to",
          "type": "address"
        },
        {
          "internalType": "uint256",
          "name": "tokenId",
          "type": "uint256"
        },
        {
          "internalType": "bytes",
          "name": "data",
          "type": "bytes"
        }
      ],
      "name": "safeTransferFrom",
      "outputs": [],
      "stateMutability": "nonpayable",
      "type": "function"
    },
    {
      "inputs": [
        {
          "internalType": "address",
          "name": "operator",
          "type": "address"
        },
        {
          "internalType": "bool",
          "name": "approved",
          "type": "bool"
        }
      ],
      "name": "setApprovalForAll",
      "outputs": [],
      "stateMutability": "nonpayable",
      "type": "function"
    },
    {
      "inputs": [
        {
          "internalType": "bytes4",
          "name": "interfaceId",
          "type": "bytes4"
        }
      ],
      "name": "supportsInterface",
      "outputs": [
        {
          "internalType": "bool",
          "name": "",
          "type": "bool"
        }
      ],
      "stateMutability": "view",
      "type": "function"
    },
    {
      "inputs": [],
      "name": "symbol",
      "outputs": [
        {
          "internalType": "string",
          "name": "",
          "type": "string"
        }
      ],
      "stateMutability": "view",
      "type": "function"
    },
    {
      "inputs": [
        {
          "internalType": "uint256",
          "name": "index",
          "type": "uint256"
        }
      ],
      "name": "tokenByIndex",
      "outputs": [
        {
          "internalType": "uint256",
          "name": "",
          "type": "uint256"
        }
      ],
      "stateMutability": "view",
      "type": "function"
    },
    {
      "inputs": [
        {
          "internalType": "address",
          "name": "owner",
          "type": "address"
        },
        {
          "internalType": "uint256",
          "name": "index",
          "type": "uint256"
        }
      ],
      "name": "tokenOfOwnerByIndex",
      "outputs": [
        {
          "internalType": "uint256",
          "name": "",
          "type": "uint256"
        }
      ],
      "stateMutability": "view",
      "type": "function"
    },
    {
      "inputs": [
        {
          "internalType": "uint256",
          "name": "tokenId",
          "type": "uint256"
        }
      ],
      "name": "tokenURI",
      "outputs": [
        {
          "internalType": "string",
          "name": "",
          "type": "string"
        }
      ],
      "stateMutability": "view",
      "type": "function"
    },
    {
      "inputs": [],
      "name": "totalSupply",
      "outputs": [
        {
          "internalType": "uint256",
          "name": "",
          "type": "uint256"
        }
      ],
      "stateMutability": "view",
      "type": "function"
    },
    {
      "inputs": [
        {
          "internalType": "address",
          "name": "from",
          "type": "address"
        },
        {
          "internalType": "address",
          "name": "to",
          "type": "address"
        },
        {
          "internalType": "uint256",
          "name": "tokenId",
          "type": "uint256"
        }
      ],
      "name": "transferFrom",
      "outputs": [],
      "stateMutability": "nonpayable",
      "type": "function"
    },
    {
      "inputs": [
        {
          "internalType": "address payable",
          "name": "who",
          "type": "address"
        }
      ],
      "name": "transferFunds",
      "outputs": [],
      "stateMutability": "nonpayable",
      "type": "function"
    },
    {
      "inputs": [
        {
          "internalType": "address",
          "name": "newOwner",
          "type": "address"
        }
      ],
      "name": "transferOwnership",
      "outputs": [],
      "stateMutability": "nonpayable",
      "type": "function"
    }
  ],
  "bytecode": {
    "object": "0x60806040523480156200001157600080fd5b50604051620020d3380380620020d3833981016040819052620000349162000216565b858484600062000045838262000365565b50600162000054828262000365565b5050506001600160a01b0381166200008657604051631e4fbdf760e01b81526000600482015260240160405180910390fd5b6200009181620000e2565b50600c80546001600160a01b0319166001600160a01b038716179055600d620000bb838262000365565b506000620000d18266038d7ea4c6800062000431565b600e55506200045d95505050505050565b600b80546001600160a01b038381166001600160a01b0319831681179093556040519116919082907f8be0079c531659141344cd1fd0a4f28419497f9722a3daafe3b4186f6b6457e090600090a35050565b80516001600160a01b03811681146200014c57600080fd5b919050565b634e487b7160e01b600052604160045260246000fd5b600082601f8301126200017957600080fd5b81516001600160401b038082111562000196576200019662000151565b604051601f8301601f19908116603f01168101908282118183101715620001c157620001c162000151565b81604052838152602092508683858801011115620001de57600080fd5b600091505b83821015620002025785820183015181830184015290820190620001e3565b600093810190920192909252949350505050565b60008060008060008060c087890312156200023057600080fd5b6200023b8762000134565b95506200024b6020880162000134565b60408801519095506001600160401b03808211156200026957600080fd5b620002778a838b0162000167565b955060608901519150808211156200028e57600080fd5b6200029c8a838b0162000167565b94506080890151915080821115620002b357600080fd5b50620002c289828a0162000167565b92505060a087015190509295509295509295565b600181811c90821680620002eb57607f821691505b6020821081036200030c57634e487b7160e01b600052602260045260246000fd5b50919050565b601f8211156200036057600081815260208120601f850160051c810160208610156200033b5750805b601f850160051c820191505b818110156200035c5782815560010162000347565b5050505b505050565b81516001600160401b0381111562000381576200038162000151565b6200039981620003928454620002d6565b8462000312565b602080601f831160018114620003d15760008415620003b85750858301515b600019600386901b1c1916600185901b1785556200035c565b600085815260208120601f198616915b828110156200040257888601518255948401946001909101908401620003e1565b5085821015620004215787850151600019600388901b60f8161c191681555b5050505050600190811b01905550565b80820281158282048414176200045757634e487b7160e01b600052601160045260246000fd5b92915050565b611c66806200046d6000396000f3fe608060405234801561001057600080fd5b50600436106101c45760003560e01c80636c0360eb116100f9578063a22cb46511610097578063c87b56dd11610071578063c87b56dd14610389578063e39ff19f1461039c578063e985e9c5146103af578063f2fde38b146103c257600080fd5b8063a22cb4651461035a578063b88d4fde1461036d578063b95d366b1461038057600080fd5b806382f2de09116100d357806382f2de09146103265780638da5cb5b1461032e578063957cbd2e1461033f57806395d89b411461035257600080fd5b80636c0360eb1461030357806370a082311461030b578063715018a61461031e57600080fd5b806331c864e81161016657806342966c681161014057806342966c68146102b75780634f6ccce7146102ca5780635cb85cd2146102dd5780636352211e146102f057600080fd5b806331c864e81461027e57806339a0c6f91461029157806342842e0e146102a457600080fd5b8063095ea7b3116101a2578063095ea7b31461023157806318160ddd1461024657806323b872dd146102585780632f745c591461026b57600080fd5b806301ffc9a7146101c957806306fdde03146101f1578063081812fc14610206575b600080fd5b6101dc6101d73660046116fc565b6103d5565b60405190151581526020015b60405180910390f35b6101f96103e6565b6040516101e89190611769565b61021961021436600461177c565b610478565b6040516001600160a01b0390911681526020016101e8565b61024461023f3660046117aa565b6104a1565b005b6008545b6040519081526020016101e8565b6102446102663660046117d6565b6104b0565b61024a6102793660046117aa565b610540565b61024461028c36600461177c565b6105a5565b61024461029f3660046118a3565b610750565b6102446102b23660046117d6565b610764565b6102446102c536600461177c565b610784565b61024a6102d836600461177c565b610790565b6102446102eb36600461177c565b6107e9565b6102196102fe36600461177c565b6107f6565b6101f9610801565b61024a6103193660046118ec565b61088f565b6102446108d7565b600e5461024a565b600b546001600160a01b0316610219565b61024461034d36600461177c565b6108eb565b6101f961099b565b610244610368366004611909565b6109aa565b61024461037b366004611947565b6109b5565b61024a600e5481565b6101f961039736600461177c565b6109cc565b6102446103aa3660046118ec565b6109d7565b6101dc6103bd3660046119c7565b610a14565b6102446103d03660046118ec565b610a42565b60006103e082610a7d565b92915050565b6060600080546103f5906119f5565b80601f0160208091040260200160405190810160405280929190818152602001828054610421906119f5565b801561046e5780601f106104435761010080835404028352916020019161046e565b820191906000526020600020905b81548152906001019060200180831161045157829003601f168201915b5050505050905090565b600061048382610aa2565b506000828152600460205260409020546001600160a01b03166103e0565b6104ac828233610adb565b5050565b6001600160a01b0382166104df57604051633250574960e11b8152600060048201526024015b60405180910390fd5b60006104ec838333610ae8565b9050836001600160a01b0316816001600160a01b03161461053a576040516364283d7b60e01b81526001600160a01b03808616600483015260248201849052821660448201526064016104d6565b50505050565b600061054b8361088f565b821061057c5760405163295f44f760e21b81526001600160a01b0384166004820152602481018390526044016104d6565b506001600160a01b03919091166000908152600660209081526040808320938352929052205490565b600c546040516331a9108f60e11b8152600481018390526001600160a01b0390911690636352211e90602401602060405180830381865afa1580156105ee573d6000803e3d6000fd5b505050506040513d601f19601f820116820180604052508101906106129190611a2f565b6001600160a01b0316336001600160a01b0316146106435760405163685d3b5f60e11b815260040160405180910390fd5b600c546040516323b872dd60e01b8152336004820152306024820152604481018390526001600160a01b03909116906323b872dd90606401600060405180830381600087803b15801561069557600080fd5b505af11580156106a9573d6000803e3d6000fd5b5050505060003390506106bc8183610afd565b6104ac82600d80546106cd906119f5565b80601f01602080910402602001604051908101604052809291908181526020018280546106f9906119f5565b80156107465780601f1061071b57610100808354040283529160200191610746565b820191906000526020600020905b81548152906001019060200180831161072957829003601f168201915b5050505050610b17565b610758610b67565b600d6104ac8282611a9a565b61077f838383604051806020016040528060008152506109b5565b505050565b6104ac60008233610ae8565b600061079b60085490565b82106107c45760405163295f44f760e21b815260006004820152602481018390526044016104d6565b600882815481106107d7576107d7611b5a565b90600052602060002001549050919050565b6107f1610b67565b600e55565b60006103e082610aa2565b600d805461080e906119f5565b80601f016020809104026020016040519081016040528092919081815260200182805461083a906119f5565b80156108875780601f1061085c57610100808354040283529160200191610887565b820191906000526020600020905b81548152906001019060200180831161086a57829003601f168201915b505050505081565b60006001600160a01b0382166108bb576040516322718ad960e21b8152600060048201526024016104d6565b506001600160a01b031660009081526003602052604090205490565b6108df610b67565b6108e96000610b94565b565b6108f4816107f6565b6001600160a01b0316336001600160a01b0316146109255760405163685d3b5f60e11b815260040160405180910390fd5b600c54604051632142170760e11b8152306004820152336024820152604481018390526001600160a01b03909116906342842e0e90606401600060405180830381600087803b15801561097757600080fd5b505af115801561098b573d6000803e3d6000fd5b5050505061099881610be6565b50565b6060600180546103f5906119f5565b6104ac338383610c21565b6109c08484846104b0565b61053a84848484610cc0565b60606103e082610de9565b6109df610b67565b6040516001600160a01b038216904780156108fc02916000818181858888f193505050501580156104ac573d6000803e3d6000fd5b6001600160a01b03918216600090815260056020908152604080832093909416825291909152205460ff1690565b610a4a610b67565b6001600160a01b038116610a7457604051631e4fbdf760e01b8152600060048201526024016104d6565b61099881610b94565b60006001600160e01b03198216632483248360e11b14806103e057506103e082610ef2565b6000818152600260205260408120546001600160a01b0316806103e057604051637e27328960e01b8152600481018490526024016104d6565b61077f8383836001610f17565b6000610af584848461101d565b949350505050565b6104ac8282604051806020016040528060008152506110ea565b6000828152600a60205260409020610b2f8282611a9a565b506040518281527ff8e1a15aba9398e019f0b49df1a4fde98ee17ae345cb5f6b5e2c27f5033e8ce79060200160405180910390a15050565b600b546001600160a01b031633146108e95760405163118cdaa760e01b81523360048201526024016104d6565b600b80546001600160a01b038381166001600160a01b0319831681179093556040519116919082907f8be0079c531659141344cd1fd0a4f28419497f9722a3daafe3b4186f6b6457e090600090a35050565b6000610bf56000836000610ae8565b90506001600160a01b0381166104ac57604051637e27328960e01b8152600481018390526024016104d6565b6001600160a01b038216610c5357604051630b61174360e31b81526001600160a01b03831660048201526024016104d6565b6001600160a01b03838116600081815260056020908152604080832094871680845294825291829020805460ff191686151590811790915591519182527f17307eab39ab6107e8899845ad3d59bd9653f200f220920489ca2b5937696c31910160405180910390a3505050565b6001600160a01b0383163b1561053a57604051630a85bd0160e11b81526001600160a01b0384169063150b7a0290610d02903390889087908790600401611b70565b6020604051808303816000875af1925050508015610d3d575060408051601f3d908101601f19168201909252610d3a91810190611bad565b60015b610da6573d808015610d6b576040519150601f19603f3d011682016040523d82523d6000602084013e610d70565b606091505b508051600003610d9e57604051633250574960e11b81526001600160a01b03851660048201526024016104d6565b805181602001fd5b6001600160e01b03198116630a85bd0160e11b14610de257604051633250574960e11b81526001600160a01b03851660048201526024016104d6565b5050505050565b6060610df482610aa2565b506000828152600a602052604081208054610e0e906119f5565b80601f0160208091040260200160405190810160405280929190818152602001828054610e3a906119f5565b8015610e875780601f10610e5c57610100808354040283529160200191610e87565b820191906000526020600020905b815481529060010190602001808311610e6a57829003601f168201915b505050505090506000610ea560408051602081019091526000815290565b90508051600003610eb7575092915050565b815115610ee9578082604051602001610ed1929190611bca565b60405160208183030381529060405292505050919050565b610af584611101565b60006001600160e01b0319821663780e9d6360e01b14806103e057506103e082611176565b8080610f2b57506001600160a01b03821615155b15610fed576000610f3b84610aa2565b90506001600160a01b03831615801590610f675750826001600160a01b0316816001600160a01b031614155b8015610f7a5750610f788184610a14565b155b15610fa35760405163a9fbf51f60e01b81526001600160a01b03841660048201526024016104d6565b8115610feb5783856001600160a01b0316826001600160a01b03167f8c5be1e5ebec7d5bd14f71427d1e84f3dd0314c0f7b2291e5b200ac8c7c3b92560405160405180910390a45b505b5050600090815260046020526040902080546001600160a01b0319166001600160a01b0392909216919091179055565b60008061102b8585856111c6565b90506001600160a01b0381166110885761108384600880546000838152600960205260408120829055600182018355919091527ff3f7a9fe364faab93b216da50a3214154f22a0a2b415b23a84c8169e8b636ee30155565b6110ab565b846001600160a01b0316816001600160a01b0316146110ab576110ab81856112bf565b6001600160a01b0385166110c7576110c284611350565b610af5565b846001600160a01b0316816001600160a01b031614610af557610af585856113ff565b6110f4838361144f565b61077f6000848484610cc0565b606061110c82610aa2565b50600061112460408051602081019091526000815290565b90506000815111611144576040518060200160405280600081525061116f565b8061114e846114b4565b60405160200161115f929190611bca565b6040516020818303038152906040525b9392505050565b60006001600160e01b031982166380ac58cd60e01b14806111a757506001600160e01b03198216635b5e139f60e01b145b806103e057506301ffc9a760e01b6001600160e01b03198316146103e0565b6000828152600260205260408120546001600160a01b03908116908316156111f3576111f3818486611547565b6001600160a01b0381161561123157611210600085600080610f17565b6001600160a01b038116600090815260036020526040902080546000190190555b6001600160a01b03851615611260576001600160a01b0385166000908152600360205260409020805460010190555b60008481526002602052604080822080546001600160a01b0319166001600160a01b0389811691821790925591518793918516917fddf252ad1be2c89b69c2b068fc378daa952ba7f163c4a11628f55a4df523b3ef91a4949350505050565b60006112ca8361088f565b60008381526007602052604090205490915080821461131d576001600160a01b03841660009081526006602090815260408083208584528252808320548484528184208190558352600790915290208190555b5060009182526007602090815260408084208490556001600160a01b039094168352600681528383209183525290812055565b60085460009061136290600190611bf9565b6000838152600960205260408120546008805493945090928490811061138a5761138a611b5a565b9060005260206000200154905080600883815481106113ab576113ab611b5a565b60009182526020808320909101929092558281526009909152604080822084905585825281205560088054806113e3576113e3611c1a565b6001900381819060005260206000200160009055905550505050565b6000600161140c8461088f565b6114169190611bf9565b6001600160a01b039093166000908152600660209081526040808320868452825280832085905593825260079052919091209190915550565b6001600160a01b03821661147957604051633250574960e11b8152600060048201526024016104d6565b600061148783836000610ae8565b90506001600160a01b0381161561077f576040516339e3563760e11b8152600060048201526024016104d6565b606060006114c1836115ab565b600101905060008167ffffffffffffffff8111156114e1576114e1611817565b6040519080825280601f01601f19166020018201604052801561150b576020820181803683370190505b5090508181016020015b600019016f181899199a1a9b1b9c1cb0b131b232b360811b600a86061a8153600a850494508461151557509392505050565b611552838383611683565b61077f576001600160a01b03831661158057604051637e27328960e01b8152600481018290526024016104d6565b60405163177e802f60e01b81526001600160a01b0383166004820152602481018290526044016104d6565b60008072184f03e93ff9f4daa797ed6e38ed64bf6a1f0160401b83106115ea5772184f03e93ff9f4daa797ed6e38ed64bf6a1f0160401b830492506040015b6d04ee2d6d415b85acef81000000008310611616576d04ee2d6d415b85acef8100000000830492506020015b662386f26fc10000831061163457662386f26fc10000830492506010015b6305f5e100831061164c576305f5e100830492506008015b612710831061166057612710830492506004015b60648310611672576064830492506002015b600a83106103e05760010192915050565b60006001600160a01b03831615801590610af55750826001600160a01b0316846001600160a01b031614806116bd57506116bd8484610a14565b80610af55750506000908152600460205260409020546001600160a01b03908116911614919050565b6001600160e01b03198116811461099857600080fd5b60006020828403121561170e57600080fd5b813561116f816116e6565b60005b8381101561173457818101518382015260200161171c565b50506000910152565b60008151808452611755816020860160208601611719565b601f01601f19169290920160200192915050565b60208152600061116f602083018461173d565b60006020828403121561178e57600080fd5b5035919050565b6001600160a01b038116811461099857600080fd5b600080604083850312156117bd57600080fd5b82356117c881611795565b946020939093013593505050565b6000806000606084860312156117eb57600080fd5b83356117f681611795565b9250602084013561180681611795565b929592945050506040919091013590565b634e487b7160e01b600052604160045260246000fd5b600067ffffffffffffffff8084111561184857611848611817565b604051601f8501601f19908116603f0116810190828211818310171561187057611870611817565b8160405280935085815286868601111561188957600080fd5b858560208301376000602087830101525050509392505050565b6000602082840312156118b557600080fd5b813567ffffffffffffffff8111156118cc57600080fd5b8201601f810184136118dd57600080fd5b610af58482356020840161182d565b6000602082840312156118fe57600080fd5b813561116f81611795565b6000806040838503121561191c57600080fd5b823561192781611795565b91506020830135801515811461193c57600080fd5b809150509250929050565b6000806000806080858703121561195d57600080fd5b843561196881611795565b9350602085013561197881611795565b925060408501359150606085013567ffffffffffffffff81111561199b57600080fd5b8501601f810187136119ac57600080fd5b6119bb8782356020840161182d565b91505092959194509250565b600080604083850312156119da57600080fd5b82356119e581611795565b9150602083013561193c81611795565b600181811c90821680611a0957607f821691505b602082108103611a2957634e487b7160e01b600052602260045260246000fd5b50919050565b600060208284031215611a4157600080fd5b815161116f81611795565b601f82111561077f57600081815260208120601f850160051c81016020861015611a735750805b601f850160051c820191505b81811015611a9257828155600101611a7f565b505050505050565b815167ffffffffffffffff811115611ab457611ab4611817565b611ac881611ac284546119f5565b84611a4c565b602080601f831160018114611afd5760008415611ae55750858301515b600019600386901b1c1916600185901b178555611a92565b600085815260208120601f198616915b82811015611b2c57888601518255948401946001909101908401611b0d565b5085821015611b4a5787850151600019600388901b60f8161c191681555b5050505050600190811b01905550565b634e487b7160e01b600052603260045260246000fd5b6001600160a01b0385811682528416602082015260408101839052608060608201819052600090611ba39083018461173d565b9695505050505050565b600060208284031215611bbf57600080fd5b815161116f816116e6565b60008351611bdc818460208801611719565b835190830190611bf0818360208801611719565b01949350505050565b818103818111156103e057634e487b7160e01b600052601160045260246000fd5b634e487b7160e01b600052603160045260246000fdfea2646970667358221220338dc7ee42ebe9f288baa7c52a49ca1401c3f4e11aa69a9942c19ccf163f2a2d64736f6c63430008140033",
    "linkReferences": {}
  },
  "methodIdentifiers": {
    "approve(address,uint256)": "095ea7b3",
    "balanceOf(address)": "70a08231",
    "baseURI()": "6c0360eb",
    "burn(uint256)": "42966c68",
    "byeBye(uint256)": "957cbd2e",
    "changeBaseURI(string)": "39a0c6f9",
    "changeCost(uint256)": "5cb85cd2",
    "costPerMint()": "b95d366b",
    "getApproved(uint256)": "081812fc",
    "isApprovedForAll(address,address)": "e985e9c5",
    "name()": "06fdde03",
    "owner()": "8da5cb5b",
    "ownerOf(uint256)": "6352211e",
    "readCost()": "82f2de09",
    "renounceOwnership()": "715018a6",
    "safeMint(uint256)": "31c864e8",
    "safeTransferFrom(address,address,uint256)": "42842e0e",
    "safeTransferFrom(address,address,uint256,bytes)": "b88d4fde",
    "setApprovalForAll(address,bool)": "a22cb465",
    "supportsInterface(bytes4)": "01ffc9a7",
    "symbol()": "95d89b41",
    "tokenByIndex(uint256)": "4f6ccce7",
    "tokenOfOwnerByIndex(address,uint256)": "2f745c59",
    "tokenURI(uint256)": "c87b56dd",
    "totalSupply()": "18160ddd",
    "transferFrom(address,address,uint256)": "23b872dd",
    "transferFunds(address)": "e39ff19f",
    "transferOwnership(address)": "f2fde38b"
  },
  "id": 35
}